:02000000800C72
:10000B00B27F32758901D28CD2A9D2AFC2B3D27E64
:10001B0075700775740B75750B75760B75770B51C2
:10002B001430950930960280F8057080021570E542
:10003B00705407F570A2E092B4A2E192B5A2E292DD
:10004B00B63095FD3096FDE570239000597301692C
:10005B0001A701D701FB211F21212137214D31AFF1
:10006B00749031CA740031CA31AF749131CA31E323
:10007B0031E3514585727485737575760C75770D03
:10008B00511430970B30951030960D30940680DE5E
:10009B00C2B780DAD2B780D631B8012C31AF7490A9
:1000AB0031CA740131CA31AF749131CA31E331E3D2
:1000BB00514585717485727585737675770051140A
:1000CB0030950530960280E431B8012C31AF749035
:1000DB0031CA740231CA31AF749131CA31E331E3A1
:1000EB005145512D30950530960280F031B8012CD9
:1000FB0031AF749031CA740331CA31AF749131CAC4
:10010B0031E331E35145512D30950530960280F0A6
:10011B0031B8012C2161789D515A518108B8640284
:10012B00789D30950530960280EE012C7863515AFC
:10013B005181B89D027864183095EF3096EC80EEC3
:10014B00012C010E31AF74D031CA740031CA740066
:10015B0031CA740031CA31AF74D031CA740031CA9C
:10016B0031AF74D131CA31E3F931B8FAD291D292AD
:10017B00D2B3E9540F31F9E9C4540F31F9EA540FF2
:10018B00C27E31F9D27EEAC4540F31F9C2B3E920F1
:10019B00E70E30940B30950A30960730970280B6F5
:1001AB00214F012CD292D291C292C291227E08D2BF
:1001BB0092A29233D291C291DEF7D291D292227E49
:1001CB0008C291339292D291C291DEF7D2922092D1
:1001DB00FDD291C291C292227E08C291D292A2927A
:1001EB0033D291C291DEF7C292D291C29122900288
:1001FB00A57F0893207E04A27F92E71392B0C2B131
:10020B00D2B1DFF7C2B2D2B222E57731F9E576315E
:10021B00F9E57531F9E57431F9C2B3307FFD207F13
:10022B00FD22E57331F9E57231F9E571C27EC27FCA
:10023B0031F9D27E740A31F980DFD2B375F0648460
:10024B00F571E5F075F00A84F572E5F0F57322E8C7
:10025B0030E702F40475F00A84FAE5F0D2B331F911
:10026B00EA31F9E830E704740B8002740A31F9744F
:10027B000A31F9C2B322E47B50519104DBFB7B5072
:10028B00145191DBFB223095FC3096F97C05B505BA
:10029B000092B3DDF97DC8DCF522C0F9A4B09992C8
:0802AB0082F88090FFBF9CC6A1
:00000001FF